:020000040000fa
:080000000002040000000000f2
:020000040000fa
:10040000cfc120000edf20000e0188000000000098
:100410000c000700e051200001002000110007003f
:10042000000020000000e000020032000000020096
:100430000000000094020200000000000040da000a
:100440000000fe004440a900000020000000e00081
:100450000300320000002000a00188004440a800f2
:100460000000060091018800800078000000eb0089
:1004700015003700e280400032a0b4009101ba00bc
:10048000e280400032a0b4009102ba00e280400055
:1004900032a0b4000002eb00472bde00f507b200eb
:1004a000602ce10004003a000059eb008301e900f0
:1004b000fdff3e00040037006128e100010032002a
:1004c0000082eb00040007001101ba000200e00006
:1004d000e8ff3a00000006003159ba008301e90044
:1004e0000c0032002159ba008301e90008003200f3
:1004f0000400e00003003a00e280400032a0b400b3
:10050000f5ff370011d9ba008301e900faff3a007c
:100510008100e800e180400032a0b4000000060045
:080520000040da000000fe00bb
:020000040000fa
:0200000401f009
:04000c00f9ff0000f8
:020000040000fa
:0200000401f009
:04001000faff0000f3
:020000040000fa
:0200000401f009
:040014007fff00006a
:020000040000fa
:1000080090020000900200009002000090020000a0
:100018009002000090020000900200009002000090
:100028009002000090020000900200009002000080
:100038009002000090020000900200009c03000063
:10004800380300009002000090020000f603000050
:100058009002000090020000900200009002000050
:100068009002000090020000900200009002000040
:100078009002000090020000900200009002000030
:100088009002000090020000900200009002000020
:100098009002000016030000900200009002000089
:1000a8009002000090020000900200009002000000
:1000b80090020000900200009002000090020000f0
:1000c80090020000900200009002000090020000e0
:1000d80090020000900200009002000090020000d0
:1000e80090020000900200009002000090020000c0
:1000f80090020000900200009002000090020000b0
:10010800900200009002000090020000900200009f
:10011800900200009002000090020000900200008f
:1001280090020000c6030000900200009002000048
:10013800900200009002000090020000900200006f
:10014800900200009002000090020000900200005f
:10015800900200009002000090020000900200004f
:10016800900200009002000090020000900200003f
:10017800900200009002000090020000900200002f
:10018800900200009002000090020000900200001f
:10019800900200009002000090020000900200000f
:1001a80090020000900200009002000090020000ff
:1001b80090020000900200009002000090020000ef
:1001c80090020000900200009002000090020000df
:1001d80090020000900200009002000090020000cf
:1001e80090020000900200009002000090020000bf
:0801f8009002000090020000db
:020000040000fa
:10020800900200009002000090020000900200009e
:10021800900200009002000090020000900200008e
:10022800900200009002000090020000900200007e
:100238009002000090020000900200009c03000061
:10024800380300009002000090020000f60300004e
:10025800900200009002000090020000900200004e
:10026800900200009002000090020000900200003e
:10027800900200009002000090020000900200002e
:10028800900200009002000090020000900200001e
:100298009002000016030000900200009002000087
:1002a80090020000900200009002000090020000fe
:1002b80090020000900200009002000090020000ee
:1002c80090020000900200009002000090020000de
:1002d80090020000900200009002000090020000ce
:1002e80090020000900200009002000090020000be
:1002f80090020000900200009002000090020000ae
:10030800900200009002000090020000900200009d
:10031800900200009002000090020000900200008d
:1003280090020000c6030000900200009002000046
:10033800900200009002000090020000900200006d
:10034800900200009002000090020000900200005d
:10035800900200009002000090020000900200004d
:10036800900200009002000090020000900200003d
:10037800900200009002000090020000900200002d
:10038800900200009002000090020000900200001d
:10039800900200009002000090020000900200000d
:1003a80090020000900200009002000090020000fd
:1003b80090020000900200009002000090020000ed
:1003c80090020000900200009002000090020000dd
:1003d80090020000900200009002000090020000cd
:1003e80090020000900200009002000090020000bd
:0803f8009002000090020000d9
:020000040000fa
:100528001600fa00a0002000270107000080eb0059
:10053800601988000e8fe800c8a2a900000000001a
:10054800c8e2a90000000000c9c2a800000000001d
:10055800c982a90000000000cd82a900c022a9001c
:1005680000000000c002a90000000000c962a90044
:1005780000000000c942a90000000000c882a900cc
:1005880000000000c082a9000000000070002000e8
:10059800bd0007008240a90097a0a8001061a9002b
:1005a800cd82a9000000eb00900888000000eb0055
:1005b800500888002111200091407800f0ccb30049
:1005c80000c060000044a00012e1b7001221a90099
:1005d8000080eb00700888001221a9009500a8008f
:1005e8000000eb00800888000000eb00300888005d
:1005f8000111200091407800f0ccb30000c06000e9
:100608000044a00010e1b7001021a9000080eb0011
:10061800600888001021a90094e0a800cca2a800d6
:10062800feff3700801f78003400f800000020002b
:10063800a00188000000fa0010c0b30006ecb70063
:10064800f00f20001060880000b22f0050088800ca
:1006580013e1a80087a0a9000080fa003400f9007f
:100668004f00780000400600809fbe003400f8006c
:1006780000002000a00188000000fa00104080005f
:1006880011608000810f500001003a00c422a800c8
:100698002040800011608000810f500001003a0066
:1006a800c402a8003040800011608000810f500013
:1006b80001003a00cd62a80040408000116080002f
:1006c800810f500001003a00cd42a8005040800040
:1006d80011608000810f500001003a00cc82a80010
:1006e8006040800011608000810f500001003a00d6
:1006f800c482a80011e1a800e0fe2f00500888007d
:100708008500a900106080000000e90010608800e2
:10071800106080000000e00001003a0013e1a90029
:100728000080fa003400f9004f00be0000400600c7
:10073800809fbe003400f80000002000a00188005f
:100748000000fa0090ff2f00300888002116800072
:1007580000f62500008060002016880061168000e1
:10076800f00e2000008060006016880084e0a90078
:1007780011e1a9000080fa003400f9004f00be0022
:1007880000400600801f78003400f80000002000b8
:10079800a00188000200fa008c20a90022c2bf0034
:1007a800644060000004e000050032000000eb0037
:1007b8002060880030118000000f78008560a90053
:1007c80022c2bf00624060000004e0000100320065
:1007d8002222a9000080fa003400f9004f007800b6
:1007e80000400600809fbe003400f8000000200092
:1007f800a00188000200fa0030118000000f780084
:100808001e0078004800de00610060000004e0007f
:100818000b003200f00f20001e0f600020608000e7
:100828008000400000802000008040001e08780002
:10083800206080000000e800206088000200370087
:100848000000eb00206088008560a9000080fa00a5
:100858003400f9004f00be00004006000200fa0014
:10086800000f78001e007800401188000000280062
:100878000011880000402800101188008560a90038
:100888000080fa00000006000200fa00000f78005d
:100898001e007800401188002082a9002062a8006c
:1008a80020c2bf006040b30020e2b7002162a80068
:1008b8002002a90021e2a80011222000914078001e
:1008c800c0cfb30000c0600021e2b70022c2bf0061
:1008d800f043b20022e2b70000402800101188005f
:1008e8009c20a8009560a8008560a9000080fa00f7
:1008f800000006000200fa00000f78001e007800d1
:10090800c0118800000028008011880000402800dd
:100918009011880087c0a9000080fa000000060036
:100928000200fa00004f780023c2bf006240600056
:100938000004e000fcff3a001e00fb0020118800c4
:100948000080fa00000006000200fa00004f78005c
:1009580033c2bf00624060000004e000fcff3a00c0
:100968001e00fb00a01188000080fa0000000600ad
:100978000200fa0085c0bf00684060000004e00083
:10098800fcff320030118000004f78008560a9001c
:100998001e00fb000080fa00000006000200fa00ba
:1009a80087c0bf000044b2000004e000fcff320032
:1009b800b0118000004f780087c0a9001e00fb001e
:1009c8000080fa00000006000400fa0010079800f2
:1009d8000000eb00000f78000000eb00000f78002b
:1009e80002003700060007001e0fe8001e009000f6
:1009f8009e0f1000fbff35000080fa000000060083
:100a08000200fa000000eb00000f78000000eb0085
:100a1800000f780002003700000000001e0fe800f9
:100a2800901420009e0f1000fbff34000080fa0095
:040a380000000600b4
:020000040000fa
:100a3c00000c000008000000020000000100000093
:100a4c00000000000000000000080000000400008e
:080a5c00000000000000000092
:00000001FF
