:020000040000fa
:080000000002040000000000f2
:020000040000fa
:100400008f8220000edf20000e0188000000000017
:100410000c00070080c2200001002000110007002e
:10042000000020000000e000020032000000020096
:10043000000000006a0b0200000000000040da002b
:100440000000fe004440a900c02120000000e000a0
:100450000300320000002000a00188004440a800f2
:100460000000060091018800800078000000eb0089
:1004700015003700e280400032a0b4009101ba00bc
:10048000e280400032a0b4009102ba00e280400055
:1004900032a0b4000002eb00472bde00f507b200eb
:1004a000602ce10004003a000059eb008301e900f0
:1004b000fdff3e00040037006128e100010032002a
:1004c0000082eb00040007001101ba000200e00006
:1004d000e8ff3a00000006003159ba008301e90044
:1004e0000c0032002159ba008301e90008003200f3
:1004f0000400e00003003a00e280400032a0b400b3
:10050000f5ff370011d9ba008301e900faff3a007c
:100510008100e800e180400032a0b4000000060045
:080520000040da000000fe00bb
:020000040000fa
:0200000401f009
:04000c00f9ff0000f8
:020000040000fa
:0200000401f009
:04001000feff0000ef
:020000040000fa
:0200000401f009
:040014007fff00006a
:020000040000fa
:1000080090020000900200009002000090020000a0
:100018009002000090020000900200009002000090
:10002800900200009002000090020000560b0000b1
:10003800900200009002000090020000fa05000003
:10004800ec06000090020000900200008a0b0000fd
:100058009002000090020000900200009002000050
:100068009002000090020000900200009002000040
:100078009002000090020000900200009002000030
:100088009002000090020000900200009002000020
:100098009002000090020000900200009002000010
:1000a8009002000090020000900200009002000000
:1000b80090020000900200009002000090020000f0
:1000c80090020000900200009002000090020000e0
:1000d80090020000900200009002000090020000d0
:1000e80090020000900200009002000090020000c0
:1000f80090020000900200009002000090020000b0
:10010800900200009002000090020000900200009f
:10011800900200009002000090020000900200008f
:10012800900200009002000090020000900200007f
:10013800900200009002000090020000900200006f
:10014800900200009002000090020000900200005f
:10015800900200009002000090020000900200004f
:10016800900200009002000090020000900200003f
:10017800900200009002000090020000900200002f
:10018800900200009002000090020000900200001f
:10019800900200009002000090020000900200000f
:1001a80090020000900200009002000090020000ff
:1001b80090020000900200009002000090020000ef
:1001c80090020000900200009002000090020000df
:1001d80090020000900200009002000090020000cf
:1001e80090020000900200009002000090020000bf
:0801f8009002000090020000db
:020000040000fa
:10020800900200009002000090020000900200009e
:10021800900200009002000090020000900200008e
:10022800900200009002000090020000560b0000af
:10023800900200009002000090020000fa05000001
:10024800ec06000090020000900200008a0b0000fb
:10025800900200009002000090020000900200004e
:10026800900200009002000090020000900200003e
:10027800900200009002000090020000900200002e
:10028800900200009002000090020000900200001e
:10029800900200009002000090020000900200000e
:1002a80090020000900200009002000090020000fe
:1002b80090020000900200009002000090020000ee
:1002c80090020000900200009002000090020000de
:1002d80090020000900200009002000090020000ce
:1002e80090020000900200009002000090020000be
:1002f80090020000900200009002000090020000ae
:10030800900200009002000090020000900200009d
:10031800900200009002000090020000900200008d
:10032800900200009002000090020000900200007d
:10033800900200009002000090020000900200006d
:10034800900200009002000090020000900200005d
:10035800900200009002000090020000900200004d
:10036800900200009002000090020000900200003d
:10037800900200009002000090020000900200002d
:10038800900200009002000090020000900200001d
:10039800900200009002000090020000900200000d
:1003a80090020000900200009002000090020000fd
:1003b80090020000900200009002000090020000ed
:1003c80090020000900200009002000090020000dd
:1003d80090020000900200009002000090020000cd
:1003e80090020000900200009002000090020000bd
:0803f8009002000090020000d9
:020000040000fa
:100528003854000062710000070b00000d0800003d
:100538000402000001000000716200001354000072
:100548002536000047380000495a00002b6c00008f
:100558001d0e00007f4700002b1d0000001000004a
:100568002008000040040000020100000000000014
:1005780000030000000500000e070000000900004d
:100588000e0b00000e0d00000e0e00000003000010
:1005980003030000040d000006030000080d00001e
:1005a8000a0300000d0d00000e0d000000050000fc
:1005b800020b00000505000006050000080b0000fe
:1005c8000b0b00000c0500000e0b000008010000da
:1005d80006030000060500000606000008080000e3
:1005e800080b0000080d0000060f000000090000bd
:1005f80002070000040700000707000009090000bf
:100608000a0900000c0900000e07000004010000a0
:100618000a03000004040000040700000a0900009f
:100628000a0a0000040d00000a0f00000201000081
:10063800020200000c050000020700000c0900007f
:10064800020b00000c0c00000c0f00000101000060
:100658000201000004010000060f0000080100006c
:100668000a0f00000c0f00000f0f0000000300002d
:1006780005e7000009eb0000edee00000333000081
:100688004d6300008da30000dded0000052b000088
:10069800556500008bbb0000c5eb000081630000be
:1006a80065660000888b00008d6f00000927000038
:1006b8004777000099a90000c9e7000041a300009e
:1006c80044470000a9aa00004daf00002122000005
:1006d800c5270000c92b0000cccf00001121000065
:1006e800416f000081af0000cfff00000000000054
:1006f80000000000000000000000000000000000f2
:1007080000000000000000000000000000000000e1
:1007180000000000000000000000000000000000d1
:1007280000000000000000000000000000000000c1
:1007380000000000000000000000000000000000b1
:1007480000000000000000000000000000000000a1
:100758000000000000000000000000000000000091
:1007680000000000000000000000000048490000f0
:10077800540000005245000056490000564500004c
:10078800004500004e54000045520000454400005a
:10079800204a0000414900004c000000454e00007e
:1007a800544500005245000044200000454e00001a
:1007b800454d0000592000004a410000494c000006
:1007c800004500004e54000045520000454400001a
:1007d800204800004f4d0000452000004a4100001d
:1007e800494c000000430000484100004e4700000b
:1007f8004520000054450000414d00000045000020
:100808005854000052410000004500004e540000ba
:1008180045520000454400002042000041530000ba
:10082800450000004e6f00006e6500000055000096
:100838004e4b00004e4f0000574e00000050000085
:100848007265000020470000616d0000650000002f
:100858004465000061640000004900006e2000004b
:10086800486f00006d650000206a000061690000a3
:100878006c000000496e0000206500006e650000f5
:100888006d790000206a0000616900006c000000ba
:10089800476f0000696e000067200000746f000059
:1008a800206a0000616900006c000000426c0000d2
:1008b80065650000646900006e670000204f000055
:1008c8007574000000570000616c00006b6900003f
:1008d8006e670000204800006f6d00006500000092
:1008e8004a610000696c000020430000616d00004f
:1008f800706900006e670000005400007279000003
:10090800696e000067200000746f0000206a000014
:10091800616900006c200000636100006d700000d8
:10092800004600006c610000672000006361000061
:100938006d700000696e000067000000556e0000d1
:100948006b6e00006f7700006e200000537400008b
:0809580061740000650000005d
:020000040000fa
:100960000400fa00204798003147980017c8bf00dc
:10097000ef4f5000fdff3a002e409000e74f50002f
:100980000c003e0026c8bf000080fb004300dd00d5
:10099000804078002e40900000c07000004f78002a
:1009a0001e4078002802070016e8b7000040eb0060
:1009b00017e8b7000080fa00000006000400fa0003
:1009c000204798003147980017c8bf00ef4f5000ec
:1009d000fdff3a002e409000e34f50000f003e0014
:1009e0003e4090008080fb002e4090000080fb0085
:1009f0004600dd0080807000000f20000080600055
:100a00004480de00104798001e4090000e02070050
:100a100016e8b7000040eb0017e8b70017c8bf00a2
:100a2000ef4f5000fdff3a002e409000e34f500082
:100a30000c003e002e4090000080fb004600dd00d0
:100a4000804078003e40900000c070006f4f600012
:100a50001e407800fc01070016e8b7000040eb00dc
:100a600017e8b7000080fa00000006000000fa0056
:100a70000421a9004110200091407800f0ccb3007f
:100a800000c0600001c2b3000140700004e1b70083
:100a900005a1a9000080eb0010088800510a200081
:100aa00091407800f0c8b30000c060000044a0008e
:100ab000a5e0b7009460a80005e1a8001021a900f6
:100ac0001061a9000111200091407800f0ccb30022
:100ad00000c0600001c2b3000140700010e1b70027
:100ae00011a1a900f0ff210060088800710a200010
:100af00091407800f0c8b30000c060000044a0003e
:100b0000a7e0b70094e0a80011e1a800c082a80007
:100b100071000700d00620002c010700c9a2a9001f
:100b2000c982a900c962a900c922a900c902a900f5
:100b3000c0e2a9000080fa00000006000200fa00ee
:100b4000004f78001e04e0000b00320026c8bf00f2
:100b50000004e00004003a00cda2a800cd82a80065
:100b6000cd62a90007003700cda2a800cd82a90060
:100b7000cd62a80003003700cda2a900cd82a80055
:100b8000cd62a80030c0b3009e4f100004003a00b0
:100b9000c4e2a800cd02a800cd22a80013003700af
:100ba00020c0b3009e4f100004003a00c4e2a80029
:100bb000cd02a800cd22a9000c00370010c0b30060
:100bc0009e4f100004003a00c4e2a800cd02a90024
:100bd000cd22a900050037001e04e00003003a0002
:100be000c4e2a900cd02a900cd22a9000080fa002c
:100bf000000006003600f800809fbe00829fbe0005
:100c0000849fbe00869fbe003400f80000002000d4
:100c1000a00188000000fa000cc8bf00e74f500098
:100c2000030036000040eb0003e8b7000300370084
:100c30000cc8bf000040e8000ce8b7000040eb0023
:100c400001e8b700c2c2bf00704060000004e000cd
:100c500016003a00004180000000e00008003a0061
:100c60001dc8bf000004e0000c00320071822000ab
:100c70009140780010c0b30050ff07000700370014
:100c800000418000f40f500004003a0071822000ff
:100c90009140780020c0b30048ff07000041800069
:100ca0000000e80000418800020037000000eb006f
:100cb0000041880084e0a9000080fa003400f900b7
:100cc0004f03be004f02be004f01be004f00be00ea
:100cd0003600f900004006000000fa00c0c2a9007a
:100ce0000000eb00900888000000eb00500888002e
:100cf0002111200091407800f0ccb30000c06000ca
:100d000012e1b7001221a900e00620007008880057
:100d10001221a900810a20009140780080cfb30001
:100d200000c060003040b300a8e0b7009500a80004
:100d300013e1a8000080fa00000006000200fa009b
:100d4000000f7800040037001e0078001040780083
:100d5000160007001e0fe8001e0078001040780003
:100d60000004e000f8ff3a000080fa0000000600ee
:100d70000200fa00000f7800b0c1b3000b000700ba
:100d8000040037001e0078001040780007000700bc
:100d90001e0fe8001e007800104078000004e000fc
:100da000f8ff3a000080fa00000006000200fa0096
:100db000004f780017c8bf00ef4f5000fdff3a000a
:100dc0001e40780022e8b7000040eb0017e8b700ab
:100dd0000080fa0000000600809fbe00821f78009d
:100de0003400f80000002000a00188000200fa0092
:100df00019c8bf000004e0000b00320023c8bf0088
:100e000061406000614060004601dd00412c20002f
:100e100091407800f0cbb30000c060000240700049
:100e2000c4e2b70001003700c4c2a90019c8bf005e
:100e30008040eb00014f78000004e00002003a001f
:100e400010c0b300004f78001e40780019e8b700ca
:100e500018c8bf000040e80018e8b70018c8bf0075
:100e6000ef4f50002d0036000040eb0018e8b700af
:100e700017c8bf000004e00008003a0010c0b3002b
:100e800023e8b70016c8bf0022e8b70017c8bf00a4
:100e90000040e80017e8b7002000370017c8bf007f
:100ea000e84f50000d003e0022c8bf000080fb004c
:100eb0000000a2006140600023e8b70022c8bf0024
:100ec0000080fb000000d10022e8b70017c8bf0077
:100ed0000040e80017e8b7001000370017c8bf004f
:100ee000ed4f500006003e000040eb0023e8b70045
:100ef00017c8bf000040e80017e8b7000700370038
:100f000017c8bf00ee4f500004003a00f0c0b30015
:100f100017e8b7000040eb0023e8b7008500a90000
:100f20000080fa003400f9004f0178004f00be0045
:100f3000004006000200fa00000f78001e00780052
:100f4000401188000000280000118800004028009f
:100f5000101188008560a9000080fa0000000600da
:100f60000200fa00000f78001e007800401188008f
:100f70002082a9002062a80020c2bf006040b30008
:100f800020e2b7002162a8002002a90021e2a80007
:100f90001122200091407800c0cfb30000c0600053
:100fa00021e2b70022c2bf00f043b20022e2b70044
:100fb00000402800101188009c20a8009560a8001f
:100fc0008560a9000080fa00000006000200fa0017
:100fd000000f78001e007800401188002082a900d0
:100fe0002062a900012220009140780090cfb30038
:100ff00000c0600020e2b7002162a8002002a90022
:1010000021e2a8001122200091407800c0cfb30057
:1010100000c0600021e2b70022c2bf00f043b2006e
:1010200022e2b7000040280010118800910a200039
:1010300091407800f0c8b30000c0600001c2b30066
:1010400001407000a9e0b7009560a8008560a90084
:101050000080fa00000006000200fa00000f78008d
:101060001e007800c0118800000028008011880050
:10107000004028009011880087c0a9000080fa0075
:10108000000006000200fa00004f780023c2bf00f3
:10109000624060000004e000fcff3a001e00fb001c
:1010a000201188000080fa00000006000200fa000b
:1010b000004f780033c2bf00624060000004e000cf
:1010c000fcff3a001e00fb00a01188000080fa001f
:1010d000000006000200fa0085c0bf006840600002
:1010e0000004e000fcff320030118000004f780067
:1010f0008560a9001e00fb000080fa0000000600c9
:101100000200fa0087c0bf000044b2000004e00003
:10111000fcff3200b0118000004f780087c0a900aa
:101120001e00fb000080fa00000006000200fa002a
:10113000000f7800040037001e007800104078008f
:10114000d0ff07001e0fe8001e0078001040780056
:101150000004e000f8ff3a000080fa0000000600fa
:101160000400fa00204798000040eb001047980068
:1011700010c0b300004f78000a0037002e409000e6
:101180001e4060000004e000030032001e4090009a
:101190000040e800104798001e40780000404000e2
:1011a000004f78001e4078000004e000f3ff3d008f
:1011b0001e4090000080fb00610060000080fa008b
:1011c000000006000600fa00404798000040eb00cf
:1011d000104798000040eb002047980013003700ac
:1011e0001e40900000404000104798002e409000a4
:1011f0008080fb0080292800e0c078004e409000ed
:1012000000cf60001e407800d5ff07000004e0001a
:10121000030032001e4090000004a0001047980018
:101220002e4090000040e800204798002e4090009b
:10123000e64f5000eaff36001e4090000080fb00a1
:101240000080fa00000006000200fa00004f78005b
:101250009e80fb00f029280060c078000080fb0021
:101260000080fa00000006000600fa0040479800df
:101270000040eb00104798000040eb00204798002a
:10128000130037001e4090000040400010479800b7
:101290002e4090008080fb00f02a2800e0c07800fb
:1012a0004e40900000cf60001e407800acff070069
:1012b0000004e000030032001e4090000004a00083
:1012c000104798002e4090000040e800204798000a
:1012d0002e409000e24f5000eaff36001e40900082
:1012e0008080fb00202b2800e0c078004e4090005a
:1012f00000c068000080fb006f0060000080fa0002
:10130000000006000200fa00004f78009e80fb00fb
:10131000a02b280060c078000080fb000080fa004d
:10132000000006000400fa00204798002e409000bc
:101330000080fb000000d1008080fb00a03328006b
:1013400060cf78002e4090000080fb0061006000bc
:101350000004e000030032001e4078006f4f600080
:10136000030037001e80fb004400de00004f7800c1
:101370001e80fb000080fa00000006000400fa0056
:10138000004f78001e80fb00100798001e009000a0
:10139000e50f50002d0032001e009000e50f5000b8
:1013a00011003c001e009000e20f50001e003200b1
:1013b0001e009000e20f500004003c001e00900050
:1013c000e10f5000150032002f0037001e00900082
:1013d000e30f5000170032001e009000e40f500091
:1013e00017003200280037001e009000e70f500061
:1013f0001c0032001e009000e70f50001600350060
:101400001e009000e80f5000190032001e009000ee
:10141000e90f5000190032001b003700a03b2800e4
:1014200042ff07001a003700e03b28003fff07009b
:1014300017003700503c28003cff0700140037001d
:10144000203d280039ff070011003700503e2800da
:1014500036ff07000e003700703f280033ff0700fb
:101460000b0037003040280030ff0700080037002d
:10147000904028002dff070005003700604128003c
:101480002aff070002003700b041280027ff0700ad
:101490000080fa00000006000600fa00004f780005
:1014a0001e80fb006101b900120798002307980015
:1014b00090002000010020001e019000ae0190006d
:1014c000800f5100818f59002a003e001e009000bd
:1014d000ae00900000600100090037000b003700eb
:1014e0000d0037000f0037001100370013003700e0
:1014f0001500370017003700190037001b003700b0
:101500003042280009ff07001c003700c0422800b5
:1015100006ff0700190037001043280003ff0700eb
:1015200016003700e043280000ff070013003700d3
:10153000c0442800fdfe070010003700a045280029
:10154000fafe07000d00370070462800f7fe07007e
:101550000a00370040472800f4fe07000700370064
:1015600010482800f1fe0700040037005049280009
:10157000eefe0700204a2800ecfe07000080fa007b
:10158000000006000800fa00204798002e40900056
:101590006f406000104798002e4090000080fb00d4
:1015a0004700de00004f78001e4090000080fb00e6
:1015b000300798003e009000e20f50002e003200ed
:1015c0003e009000e20f500004003c003e009000fe
:1015d000e10f500014003200320037003e0090004e
:1015e000e60f5000090032003e009000ea0f500064
:1015f000010032002b00370080c0b3001ce8b700a8
:1016000030c0b3001de8b700260037001e40780048
:1016100026e8b7000040eb001ce8b7000040eb00f4
:101620001de8b7001f0037001cc8bf000080fb008a
:10163000200798002e0090000000e0001900320002
:101640002e009000e80f5000010032000700370024
:101650001dc8bf000004e000120032001dc8bf001a
:101660000040e9001de8b7000e00370080c0b3005d
:101670001ce8b7000b0037001dc8bf000080fb004e
:1016800063004000e30f50000300340030c0b3009b
:101690001de8b700030037001dc8bf0063404000cd
:1016a0001de8b7000080fa00000006003400f800d2
:1016b000881f780008002000a80188004f047800e7
:1016c0000000fa008460a9000080fa003400f900ec
:1016d000004006000000fa00e4fc070000000000e3
:1016e0001dc8bf000080fb0014fd0700c842a80011
:1016f00000000000c0c2a90000000000c082a800d5
:1017000000000000c802a9000080eb0060198800fa
:10171000ffff3700809fbe003400f800000020006b
:10172000a00188000200fa0030118000004f78000c
:1017300022c2bf00644060000004e00003003200e9
:101740000040eb0003e8b7001800370003c8bf00f3
:10175000e44f50000b003e000040eb000ce8b700e7
:1017600003c8bf008080fb00408020000080400054
:101770001e48780003c8bf000040e80003e8b70037
:101780000a00370003c8bf00e54f500007003a00c9
:1017900003c8bf008080fb00408020000080400024
:1017a0001e4878000040eb0003e8b7008560a90000
:1017b0000080fa003400f9004f00be00004006002f
:1017c0000600fa00204798002e409000f043b20037
:1017d000104798002e4090008080fb00000c2000f5
:1017e000008060004680de00004f7800718220009b
:1017f000914078001e409000814f5000120032004e
:101800001e80fb00200798002e009000e10f500082
:10181000040032002e009000e20f50000800320059
:10182000090037001dc8bf000004e00006003200b8
:101830001dc8bf000040e9001de8b70002003700e6
:1018400030c0b3001de8b7000080fa0000000600b9
:020000040000fa
:101850001c08000004000000020000000000050059
:101860000a00000020080000020000000200000042
:101870000000000016080000060000000200000042
:10188000000f00000000000022080000020000001d
:10189000000000000e080000080000000200000028
:1018a0000000000000000000000000000008000030
:1018b0000e000000000000002408000002000000ec
:1018c0000200000000ff00002608000002000000e7
:0c18d000020000000118000000000000f1
:020000040000fa
:1018dc000600fa0010079800210798000000eb00a2
:1018ec00000f78000000eb00000f780002003700ba
:1018fc000a0007001e0fe8001e0078006101b90005
:10190c001e009000ae009000800f5100818f590096
:10191c00f7ff35000080fa00000006000200fa0014
:10192c000000eb00000f78000000eb00000f7800c7
:10193c0002003700000000001e0fe8009014200089
:10194c009e0f1000fbff34000080fa000000060020
:00000001FF
