:020000040000FA
:1000000005280528052805280528831603178501D6
:100010008601831603130130850186008701831250
:100020000313850186018701F401831203178D30C4
:100030008D00F00000308F00F100B530F20000308C
:10004000F300F501C030F600F701F70F2528F60F91
:100050002428831603170C140000000083120317D2
:100060000C08831203138700831203170E088312F0
:1000700003138500831203178D0F3F288F0A831601
:1000800003170C1400000000831203170C088312DE
:1000900003138600831203178D0F4F288F0A7308EE
:1000A0000E02031D5B2872080C02031D5B287008FA
:1000B0008C0071088E0083120313061C8B287518A0
:1000C00022287514F40A0C3074020319F401831207
:1000D000031723308D0003308F0074088D07031839
:1000E0008F0A831603170C140000000083120317F5
:1000F0000C08F0000E08F1008D0F7F288F0A831680
:1001000003170C1400000000831203170C08F20000
:100110000E08F3002228F50122280200000000202A
:1001200000000400020044094200C4050200040962
:100130000200C40542004409420004000200000419
:100140000000000410000004000000000000000097
:10015000000000000000000000000000000000009F
:100160000000000000000000000099122000991219
:1001700020000000000009122000091220000000E9
:100180000000991220009912200000000000FF22B8
:100190002200FF22220000000000990220009902A4
:1001A00020000002200000022000000000000000EB
:1001B000000000000000000000000000000000003F
:1001C000000000000000701C0000FF3C0200701FD7
:1001D0001000FF3FF200701FF000FF3FF200701FA1
:1001E0001000FF3C0200701C000000000000000036
:1001F00000000000000000000000000000000000FF
:1002000000000000000000000000000000000008E6
:10021000C00000010000002C4200062042008010B7
:1002200042006C01000060080200640002008000CF
:10023000020026200200202C02002A0110000004E7
:10024000C2000400C2000008C00000010000002C31
:10025000420006204200801842006201000060084F
:100260000200640002008000020026200200202C10
:100270000200280110000014C2000400C2000000A7
:1002800000008912000081020000800200000000CE
:1002900000000000000031000200811802000D0380
:1002A000020001006200000000000000000089124E
:1002B000000080020000800200000000000000003A
:1002C000000000000000000000000000000000002E
:1002D000000030000000B0000200BC000200BC00C2
:1002E0000200B100020031180200011B0200011BD4
:1002F000020031180200B1000200BC000200BC0084
:100300000200B00002003000000000000000000009
:10031000000000000000000000000000000082005B
:10032000800000201000C024800002200000C225B0
:10033000100002200000C225100002200000C0248E
:1003400080000020100082008000000000000000FB
:10035000000000000000000000000000000000009D
:10036000000000000000000000000000000000008D
:10037000000000000000000000000000000000007D
:10038000000000000000000000000000000000006D
:10039000000080000200712002007E1C00007E1C14
:1003A00000007E1C00007E0310008003020000039A
:1003B0000000000510000005100000051000002CD2
:1003C0001000022D9200022C1000822C0200C62484
:1003D0000200C6200000E2200200C0000200C600A9
:1003E0000000C0000000400000000000000000000D
:1003F00000000000000000000000000000000000FD
:1004000000000000000000000000000000000000EC
:1004100000008000000008120000011B60000118AD
:100420000000091000008C0260008D0362000018BB
:1004300000000000000000000000000000000000BC
:100440000000002000000224000082320200FF129F
:1004500022008D1202000D180200010002000000AF
:10046000000000000000000000000000000000008C
:10047000000000000000CE0DD200CE0DD200CF361D
:10048000B200CE16D200CE15D200C40DD200C40DDB
:10049000D200C40DD200F40DD200F912C200F51141
:1004A000D200C50DD200C40DD200C53DD200C53D5D
:1004B000D200C52DD200C52DD200C53DD200C53F0A
:1004C000D200C53DD200C52DD200C52DD200C53DFC
:1004D000D200C53DD200C40DD200C40DD200C53F2C
:1004E000F200C53FF200C40DD200C40DD200C53DDC
:1004F000D200C513C000C53EC200C51BC000C41356
:100500006200C40DD200C40DD200C40DD200C40DCF
:10051000D200C40DD20004090200240942002001C7
:1005200042002001420020014200000000000000C3
:100530000000240942002409420004014200040989
:100540004200000902000000000000000000040951
:1005500042002409420020000200040002000400BE
:1005600002002000020024094200040942000000A9
:10057000000000000000000000000000000000007B
:10058000000000009000000090000000000000004B
:100590000000C2249000C22490000000000000006F
:1005A000000082241000C2249000C0009000C0000F
:1005B0009000C2249000822410000000000000007F
:1005C0000000000000000000000000000000243BCC
:1005D0006200242F620024397200A42DD200242D41
:1005E000D200242DD200242DD2002A3DD200243F57
:1005F000D200543DD200242DD200242DD200242D2F
:10060000D200A42DD200C22FD200422FF200242FFC
:10061000D200242DD200242DD200242DD200A42DCE
:10062000D200243DD200243FD2002A3DD200242D06
:10063000D200A42DD200242DD200242D7200243902
:100640007200242F62008D00B500B500DF00DF00CE
:10065000070107013F013F01670167018F018F011A
:10066000C701C701F901F901210221023B023B0246
:0A0670008B028B02E702E70223036E
:02400E00F43C80
:02401000EF3F80
:00000001FF
